S0160000536F6C617250616E656C436172642E73726563A3
S11300000C9440000C945D000C945D000C945D0015
S11300100C945D000C945D000C945D000C9415131D
S11300200C945D000C945D000C945D000C945D00D8
S11300300C945D000C9411040C945D000C945D0010
S11300400C945D000C945D000C945D000C945D00B8
S11300500C945D0070045404560458045A045C045F
S11300605E046004620452045204520452045204B2
S1130070520452046404660468046A046C046E0442
S113008011241FBECFE5D8E0DEBFCDBF14E0A0E64B
S1130090B0E0E0E7F3E302C005900D92A037B107AA
S11300A0D9F726E0A0E7B4E001C01D92A038B2075A
S11300B0E1F70E9472100C94B6190C9400002FE71B
S11300C08AE196E0215080409040E1F700C00000B2
S11300D01092CA0408952F923F924F925F926F92AA
S11300E07F928F929F92AF92BF92CF92DF92EF92C4
S11300F0FF920F931F93CF93DF9300D000D0CDB71F
S1130100DEB79A8389838DB79EB79C838B83E981FD
S1130110FA8101900020E9F731974F0189819A8192
S1130120881A990A9924140191E0291A31088DB783
S11301309EB7881999090FB6F8949EBF0FBE8DBF5C
S11301400DB71EB70F5F1F4F412C512C3201809108
S1130150700490917104A0917204B0917304805F53
S1130160984DAF4FBF4F481659066A067B0660F09C
S1130170109270041092710410927204109273041D
S113018082E080936F0571C080916F05843011F413
S113019010926F05EBECF4E001900020E9F7319741
S11301A0CF018B5C94406C01E12CF12CC114D1047F
S11301B0E104F10409F44DC08FE99FE00197F1F7E0
S11301C000C000009FEF491A590A690A790AEBEC4A
S11301D0F4E001900020E9F73197CF018B5C944063
S11301E0A0E0B0E0C816D906EA06FB0691F527C0E0
S11301F0A101B8016F5F7F4FC8010E947F16F5010E
S1130200E553FB4F8081F801E20DF31D8083A401C7
S113021069817A81C8010E949C16892B61F410922D
S1130220700410927104109272041092730481E0AD
S113023080936F051AC08FEFA81AB80A02C0A12CC8
S1130240B12CC501A0E0B0E08C159D05AE05BF053D
S113025078F28FE99FE00197F1F700C000009FEF6B
S1130260491A590A690A790A72CF8B819C810FB69F
S1130270F8949EBF0FBE8DBF0F900F900F900F90FC
S1130280DF91CF911F910F91FF90EF90DF90CF906E
S1130290BF90AF909F908F907F906F905F904F90A2
S11302A03F902F90089580EAEBECF4E0DF011D927B
S11302B08A95E9F7109277041092760410927504E7
S11302C0109274040895CF93DF93EC0184E080933B
S11302D06F05CE010E946B0080916F058823C9F3DE
S11302E0DF91CF9108950E94630180916F05823060
S11302F011F081E0089580E008950F931F93CF9348
S1130300DF938C01EB010E945301C8010E94871303
S113031085E991E00E948713CE010E947301DF9169
S1130320CF911F910F910895EF92FF920F931F9316
S1130330CF93DF938C01EB017A010E945301B70143
S1130340C8010E949D1385E991E00E948713CE01A4
S11303500E947301DF91CF911F910F91FF90EF9055
S113036008950F931F93CF93DF93CDB7DEB76497B0
S11303700FB6F894DEBF0FBECDBF8E010F5F1F4FC7
S113038094E1F80111929A95E9F71F928F9384E30F
S113039091E09F938F931F930F930E94CC161C8A16
S11303A06DE271E0C8010E947D010F900F900F90E3
S11303B00F900F900F9064960FB6F894DEBF0FBEA7
S11303C0CDBFDF91CF911F910F9108950F931F938C
S11303D0CF93DF93CDB7DEB764970FB6F894DEBF43
S11303E00FBECDBF8E010F5F1F4F94E1F801119234
S11303F09A95E9F71F928F9382E491E09F938F93EC
S11304001F930F930E94CC161C8A6DE271E0C80101
S11304100E947D010F900F900F900F900F900F90FE
S113042064960FB6F894DEBF0FBECDBFDF91CF91B7
S11304301F910F910895CF93C0E011C06DE271E058
S11304408FE491E00E947D0181110CC06DE271E0A6
S113045084E591E00E947D01811104C0CF5FC53025
S113046068F380E0CF9108956DE271E087E591E053
S11304700E947D0108950F931F93CF93DF93CDB70F
S1130480DEB764970FB6F894DEBF0FBECDBF8E0102
S11304900F5F1F4F94E1F80111929A95E9F71F92AB
S11304A08F9385E691E09F938F931F930F930E9400
S11304B0CC161C8A6DE271E0C8010E947D010F9088
S11304C00F900F900F900F900F9064960FB6F894C2
S11304D0DEBF0FBECDBFDF91CF911F910F91089565
S11304E00F931F93CF93DF93CDB7DEB7EC970FB67F
S11304F0F894DEBF0FBECDBF8E010F5F1F4F2CE3FC
S1130500F80111922A95E9F77F936F939F938F9344
S113051082E791E09F938F931F930F930E94CC16D1
S11305201CAE65E871E0C8010E947D010FB6F89425
S1130530DEBF0FBECDBF811122C068E971E08BEC34
S113054094E00E94AA16892BE1F461EA71E08BEC35
S113055094E00E94AA16892BB1F46AEA71E08BEC4C
S113056094E00E94AA16892B81F463EB71E08BEC72
S113057094E00E94AA16892B51F084E009C080E01F
S113058007C081E005C082E003C083E001C085E0CC
S1130590EC960FB6F894DEBF0FBECDBFDF91CF91BE
S11305A01F910F9108956DE271E08CEB91E00E9430
S11305B07D0169EC71E08BEC94E00E94AA16892B12
S11305C0D1F462ED71E08BEC94E00E94AA16892BC1
S11305D0A1F46BED71E08BEC94E00E94AA16892BD8
S11305E071F464EE71E08BEC94E00E94AA16892BFE
S11305F041F083E0089580E0089581E0089582E069
S1130600089584E00895DF92EF92FF920F931F9371
S1130610CF93DF93CDB7DEB7EC970FB6F894DEBF78
S11306200FBECDBFD82E162F072FF42EE52EFE01B8
S113063031968CE3DF011D928A95E9F76DEE71E046
S113064086EF91E00E947D018823A1F0EF92FF9252
S11306500F931F9381E092E09F938F93CE010196B5
S11306609F938F930E94CC160FB6F894DEBF0FBEF3
S1130670CDBF15C0EF92FF920F931F931F92DF928D
S11306808BE192E09F938F93CE0101969F938F937A
S11306900E94CC160FB6F894DEBF0FBECDBF6AE33E
S11306A072E0CE0101960E947D01811105C0809106
S11306B06F05823019F403C081E001C085E0EC9637
S11306C00FB6F894DEBF0FBECDBFDF91CF911F915F
S11306D00F91FF90EF90DF900895CF92DF92EF9209
S11306E0FF920F931F93CF93DF93CDB7DEB7649739
S11306F00FB6F894DEBF0FBECDBF6C01E62EF72E09
S11307008E010F5F1F4F84E1F80111928A95E9F77A
S11307107F936F9384E492E09F938F931F930F933F
S11307200E94CC161C8A62E572E0C8010E947D0119
S11307304E2D5F2D6AE572E0C6010E9494010F9070
S11307400F900F900F900F900F90811105C0809122
S11307506F05823019F403C081E001C085E064961E
S11307600FB6F894DEBF0FBECDBFDF91CF911F91BE
S11307700F91FF90EF90DF90CF90089580917604D1
S1130780909177042091740430917504821B930B2B
S113079008952091740430917504809176049091A9
S11307A077042817390784F48091740490917504B0
S11307B09C012F5F3F4F3093750420937404FC0118
S11307C0E553FB4F808108950E94530180E0089512
S11307D0EF92FF920F931F93CF93DF937C012FEF40
S11307E081EE94E0215080409040E1F700C0000089
S11307F0C0E0D0E009C08E010F5F1F4FCE0DDF1D9A
S11308000E94C9038883E8010E94BE0318161906D2
S113081094F3CE01DF91CF911F910F91FF90EF9050
S113082008951F920F920FB60F9211242F938F9356
S11308309F93EF93FF932FB7F894E0917604F09190
S113084077048CB1E553FB4F8083809176049091BB
S113085077040196909377048093760480917604CC
S113086090917704803A910541F4109277041092A4
S1130870760410927504109274042FBFFF91EF91C7
S11308809F918F912F910F900FBE0F901F901895ED
S113089090E0FC01F197E631F10520F4E65DFF4FAD
S11308A00C94381680E0089582E0089583E008955A
S11308B084E0089585E0089586E0089587E008952A
S11308C088E0089589E008958AE008958BE008950A
S11308D08CE008958DE008958EE008958FE00895EA
S11308E081E008959927ECE7F5E0118210829F9347
S11308F08F9386E692E09F938F93FF93EF930E94EA
S1130900CC160F900F900F900F900F900F900895AA
S1130910E8E7F5E024E0DF011D922A95E9F79F93CB
S11309208F938BE692E09F938F93FF93EF930E94B4
S1130930CC160F900F900F900F900F900F9008957A
S1130940CF93DF93655071092FEF3FEF42E050E002
S113095016C0A32FBB27FC01E40FF51FE081E901BA
S1130960CE27FE01FF27EE0FFF1FE059FD4F208128
S113097031812A273B27615071094F5F5F4F16165B
S113098017063CF3C90180959095DF91CF910895A6
S113099081B3806481BB82B38F7B82BB2FEF89EFED
S11309A090E0215080409040E1F700C0000082B305
S11309B0806482BB089581B38F7B81BB8699FECF0F
S11309C0869BFECF8699FECF089520E030E019C0C3
S11309D0869BFECF80EA8A95F1F7869B09C08091B9
S11309E07D0490E0880F991F816080937D0405C089
S11309F080917D04880F80937D048699FECF2F5FBC
S1130A003F4F2830310524F380917D0408950895E3
S1130A100895CF93DF930E94C8040E94DB040E94D0
S1130A20E504809367060E94E504809360060E94B3
S1130A30E504809366060E94E504809372060E9492
S1130A40E50480936106C0916706D09160062D2F5E
S1130A5030E02C0F311D90916606290F311D6091F5
S1130A607206260F311D482F50E02417350759F41C
S1130A70892F0E9407058093C9046D2F8C2F0E9433
S1130A8008058093C804DF91CF9108951ABA87E8C6
S1130A9086B980E487B9089597B18F70982B97B978
S1130AA086B1806486B9349BFECF85E38A95F1F7DD
S1130AB0000024B185B190E0982F8827820F911D02
S1130AC00895CF92DF92EF92FF920E9446058FE342
S1130AD09CE90197F1F700C000001092B80410924D
S1130AE0B9041092BA041092BB04109293041092A9
S1130AF092042CC080E00E944C05BC01990F880B25
S1130B00990B0E94D0149B01AC016091B8047091C0
S1130B10B9048091BA049091BB040E94BA13609303
S1130B20B8047093B9048093BA049093BB048FE91A
S1130B309FE00197F1F700C000008091920490912A
S1130B409304019690939304809392048091920469
S1130B5090919304883C91056CF220E030E048E4E5
S1130B6053E46091B8047091B9048091BA049091EF
S1130B70BB040E9426146093B8047093B904809354
S1130B80BA049093BB040E9498146B017C01609397
S1130B905C0670935D0680935E0690935F06A8E8FA
S1130BA0B3E19B01AC010E943E160E94D01420E0E8
S1130BB030E040E85AE30E945C150E949814609368
S1130BC0C0047093C1048093C2049093C304C7010A
S1130BD0B6010E94D01420E030E040EA5BE30E94BA
S1130BE05C1520E030E040E250E40E94B91324EAAE
S1130BF030E74DEB5EE30E9426146093C4047093C7
S1130C00C5048093C6049093C70420E030E04AE70B
S1130C1054E40E945C150E9498146093BC04709381
S1130C20BD048093BE049093BF0499238CF49B016C
S1130C30AC0188279927DC01821B930BA40BB50B0D
S1130C408093BC049093BD04A093BE04B093BF04EE
S1130C508091BC049091BD04A091BE04B091BF04E6
S1130C608397A105B10544F41092BC041092BD040D
S1130C701092BE041092BF04FF90EF90DF90CF90CB
S1130C8008958F929F92AF92BF92CF92DF92EF928C
S1130C90FF928FE39CE90197F1F700C000000E94E6
S1130CA046058FE39CE90197F1F700C0000082E05C
S1130CB00E944C059093B3048093B204BC01990F35
S1130CC0880B990B0E94D0142091210130912201AC
S1130CD040912301509124010E945C1520E030E0F2
S1130CE040E85AE30E945C156B017C016093AE04FA
S1130CF07093AF048093B0049093B1048090250165
S1130D0090902601A0902701B090280120912901FC
S1130D1030912A0140912B0150912C01C501B4015D
S1130D200E94BA139B01AC01C501B4010E942614B0
S1130D309B01AC01C701B6010E9426146093AA046A
S1130D407093AB048093AC049093AD0420E030E046
S1130D504AE754E40E945C150E9498146093B4041A
S1130D607093B5048093B6049093B704FF90EF900A
S1130D70DF90CF90BF90AF909F908F900895109286
S1130D80A5041092A40486E0EEE9F4E0DF011D92CC
S1130D908A95E9F710929D0410929C0410929B048A
S1130DA010929A0410929904109298041092970445
S1130DB01092960480E4E8E1F6E0DF011D928A9542
S1130DC0E9F71092A7041092A60433C0FC01E2577D
S1130DD0FA4F20812C3239F421E030E0309397042B
S1130DE02093960421C02A3351F410929704109250
S1130DF096040196909399048093980421C040919D
S1130E009604509197044130510571F440919C042B
S1130E1050919D04FA01E256FB4F20834F5F5F4FD0
S1130E2050939D0440939C0401969093A70480934F
S1130E30A6048091A6049091A7048038910530F20D
S1130E408EE994E00E945816AC019093A504809317
S1130E50A40410929D0410929C0413C0E091980481
S1130E60F0919904E20FF31FE257FA4F9081F901D0
S1130E70E85EF94F90832F5F3F4F30939D0420939A
S1130E809C0420919C0430919D042417350734F36D
S1130E900895CF92DF92EF92FF921F93CF93DF9347
S1130EA07C0180E8EEE8F5E0DF011D928A95E9F720
S1130EB08FEF90E00E9472046CE775E08EE895E095
S1130EC00E9491168AE190E00E9472046CE775E03A
S1130ED08EE895E00E94911681E090E00E947204F1
S1130EE06CE775E08EE895E00E94911681E090E051
S1130EF00E9472046CE775E08EE895E00E949116FA
S1130F0080918C0490918D040E9472046CE775E0CA
S1130F108EE895E00E94911680918A0490918B044A
S1130F200E9472046CE775E08EE895E00E949116C9
S1130F3080918804909189040E9472046CE775E0A2
S1130F408EE895E00E949116809186049091870422
S1130F500E9472046CE775E08EE895E00E94911699
S1130F6080918404909185040E9472046CE775E07A
S1130F708EE895E00E9491168091820490918304FA
S1130F800E9472046CE775E08EE895E00E94911669
S1130F90109295041092940416C0F701E80FF91FFB
S1130FA0808190E00E9472046CE775E08EE895E021
S1130FB00E949116809194049091950401969093C7
S1130FC095048093940480919404909195048F30B7
S1130FD091051CF380E090E00E94880468E775E0C6
S1130FE08EE895E00E9491168DEC90E00E947204C8
S1130FF06CE775E08EE895E00E94911610929104DA
S113100010929004C12CD12CC0E0D0E021C0FE018C
S1131010E257FA4F80810E944804182F1295107FDE
S1131020FE01E157FA4F80810E944804F601E2571D
S1131030FA4F812B808380919004909191040196C2
S113104090939104809390042296BFEFCB1ADB0A0D
S1131050C833D105E0F260919004709191048EE858
S113106095E00E94A00490938F0480938E0480E8FE
S1131070EEE8F5E0DF011D928A95E9F78FEF90E045
S11310800E9472046CE775E08EE895E00E94911668
S11310908AE190E00E9472046CE775E08EE895E0C6
S11310A00E94911681E090E00E9472046CE775E062
S11310B08EE895E00E94911681E090E00E9472040F
S11310C06CE775E08EE895E00E94911680918C049F
S11310D090918D040E9472046CE775E08EE895E0AF
S11310E00E94911680918A0490918B040E9472044C
S11310F06CE775E08EE895E00E9491168091880473
S1131100909189040E9472046CE775E08EE895E082
S11311100E94911680918604909187040E94720423
S11311206CE775E08EE895E00E9491168091840446
S1131130909185040E9472046CE775E08EE895E056
S11311400E94911680918204909183040E947204FB
S11311506CE775E08EE895E00E9491161092950474
S11311601092940416C0F701E80FF91F808190E0F3
S11311700E9472046CE775E08EE895E00E94911677
S11311808091940490919504019690939504809392
S1131190940480919404909195048F3091051CF3EC
S11311A080918E0490918F040E94880468E775E012
S11311B08EE895E00E9491168DEC90E00E947204F6
S11311C06CE775E08EE895E00E9491161092910408
S11311D010929004E12CF12CC0E0D0E021C0FE017B
S11311E0E257FA4F80810E944804182F1295107F0D
S11311F0FE01E157FA4F80810E944804F701E2574B
S1131200FA4F812B808380919004909191040196F0
S113121090939104809390042296BFEFEB1AFB0AFB
S1131220C833D105E0F2DF91CF911F91FF90EF9089
S1131230DF90CF900895EF92FF921F93CF93DF93A7
S113124080E8EEE8F5E0DF011D928A95E9F78FEF7B
S113125090E00E9472046CE775E08EE895E00E94CD
S113126091168CE090E00E9472046CE775E08EE8C1
S113127095E00E94911681E090E00E9472046CE770
S113128075E08EE895E00E94911682E090E00E945D
S113129072046CE775E08EE895E00E9491168091E7
S11312A08C0490918D040E9472046CE775E08EE8C2
S11312B095E00E94911680918A0490918B040E947B
S11312C072046CE775E08EE895E00E9491168091B7
S11312D08804909189040E9472046CE775E08EE89A
S11312E095E00E94911680918604909187040E9453
S11312F072046CE775E08EE895E00E949116809187
S11313008404909185040E9472046CE775E08EE871
S113131095E00E94911680918204909183040E942A
S113132072046CE775E08EE895E00E94911681E006
S113133090E00E9472046CE775E08EE895E00E94EC
S1131340911680E090E00E94880468E775E08EE8DA
S113135095E00E9491168DEC90E00E9472046CE777
S113136075E08EE895E00E94911610929104109217
S11313709004E12CF12CC0E0D0E021C0FE01E25742
S1131380FA4F80810E944804182F1295107FFE01A5
S1131390E157FA4F80810E944804F701E257FA4F5F
S11313A0812B808380919004909191040196909375
S11313B09104809390042296BFEFEB1AFB0ACC3180
S11313C0D105E0F260919004709191048EE895E06B
S11313D00E94A00490938F0480938E0480E8EEE82A
S11313E0F5E0DF011D928A95E9F78FEF90E00E9406
S11313F072046CE775E08EE895E00E9491168CE02B
S113140090E00E9472046CE775E08EE895E00E941B
S1131410911681E090E00E9472046CE775E08EE81A
S113142095E00E94911682E090E00E9472046CE7BD
S113143075E08EE895E00E94911680918C0490915D
S11314408D040E9472046CE775E08EE895E00E94BA
S1131450911680918A0490918B040E9472046CE727
S113146075E08EE895E00E94911680918804909131
S113147089040E9472046CE775E08EE895E00E948E
S1131480911680918604909187040E9472046CE7FF
S113149075E08EE895E00E94911680918404909105
S11314A085040E9472046CE775E08EE895E00E9462
S11314B0911680918204909183040E9472046CE7D7
S11314C075E08EE895E00E94911681E090E00E941C
S11314D072046CE775E08EE895E00E9491168091A5
S11314E08E0490918F040E94880468E775E08EE86A
S11314F095E00E9491168DEC90E00E9472046CE7D6
S113150075E08EE895E00E94911610929104109275
S11315109004E12CF12CC0E0D0E021C0FE01E257A0
S1131520FA4F80810E944804182F1295107FFE0103
S1131530E157FA4F80810E944804F701E257FA4FBD
S1131540812B8083809190049091910401969093D3
S11315509104809390042296BFEFEB1AFB0ACC31DE
S1131560D105E0F2DF91CF911F91FF90EF900895A4
S11315707F928F929F92AF92BF92CF92DF92EF921F
S1131580FF920F931F93CF93DF934C015B016A018A
S1131590790180E8EEE8F5E0DF011D928A95E9F72C
S11315A08FEF90E00E9472046CE775E08EE895E09E
S11315B00E94911683E190E00E9472046CE775E04A
S11315C08EE895E00E94911681E090E00E947204FA
S11315D06CE775E08EE895E00E94911683E090E058
S11315E00E9472046CE775E08EE895E00E94911603
S11315F080918C0490918D040E9472046CE775E0D4
S11316008EE895E00E94911680918A0490918B0453
S11316100E9472046CE775E08EE895E00E949116D2
S113162080918804909189040E9472046CE775E0AB
S11316308EE895E00E94911680918604909187042B
S11316400E9472046CE775E08EE895E00E949116A2
S113165080918404909185040E9472046CE775E083
S11316608EE895E00E949116809182049091830403
S11316700E9472046CE775E08EE895E00E94911672
S1131680C4010E94880468E775E08EE895E00E9432
S11316909116C5010E94880468E775E08EE895E01C
S11316A00E949116C6010E94880468E775E08EE8DE
S11316B095E00E949116C7010E94880468E775E0CE
S11316C08EE895E00E94911680E090E00E948804E4
S11316D068E775E08EE895E00E9491168DEC90E045
S11316E00E9472046CE775E08EE895E00E94911602
S11316F0109291041092900400E010E0C0E0D0E059
S113170022C0FE01E257FA4F80810E944804782EDD
S1131710770C770C770C770CFE01E157FA4F808138
S11317200E944804F801E257FA4F87298083809188
S11317309004909191040196909391048093900465
S113174022960F5F1F4FCA32D105D8F260919004E0
S1131750709191048EE895E00E94A00490938F0408
S113176080938E0480E8EEE8F5E0DF011D928A950F
S1131770E9F78FEF90E00E9472046CE775E08EE861
S113178095E00E94911683E190E00E9472046CE758
S113179075E08EE895E00E94911681E090E00E9449
S11317A072046CE775E08EE895E00E94911683E080
S11317B090E00E9472046CE775E08EE895E00E9468
S11317C0911680918C0490918D040E9472046CE7B0
S11317D075E08EE895E00E94911680918A049091BC
S11317E08B040E9472046CE775E08EE895E00E9419
S11317F0911680918804909189040E9472046CE788
S113180075E08EE895E00E9491168091860490918F
S113181087040E9472046CE775E08EE895E00E94EC
S1131820911680918404909185040E9472046CE75F
S113183075E08EE895E00E94911680918204909163
S113184083040E9472046CE775E08EE895E00E94C0
S11318509116C4010E94880468E775E08EE895E05B
S11318600E949116C5010E94880468E775E08EE81D
S113187095E00E949116C6010E94880468E775E00D
S11318808EE895E00E949116C7010E94880468E7DB
S113189075E08EE895E00E94911680918E049091F7
S11318A08F040E94880468E775E08EE895E00E9442
S11318B091168DEC90E00E9472046CE775E08EE85E
S11318C095E00E9491161092910410929004E12CDC
S11318D0F12CC0E0D0E021C0FE01E257FA4F808134
S11318E00E944804182F1295107FFE01E157FA4F09
S11318F080810E944804F701E257FA4F812B8083CC
S11319008091900490919104019690939104809316
S113191090042296BFEFEB1AFB0ACA32D105E0F21B
S1131920DF91CF911F910F91FF90EF90DF90CF90B7
S1131930BF90AF909F908F907F9008952F923F9289
S11319404F925F926F927F928F929F92AF92BF92CB
S1131950CF92DF92EF92FF920F931F93CF93DF9377
S113196000D000D000D0CDB7DEB73B012A013A83C6
S113197029831C830B83A82EB12C450184E1880E96
S1131980911C640180E8EEE8F5E0DF011D928A9580
S1131990E9F78FEF90E00E9472046CE775E08EE83F
S11319A095E00E949116C4010E9472046CE775E0F0
S11319B08EE895E00E94911681E090E00E94720406
S11319C06CE775E08EE895E00E94911684E090E063
S11319D00E9472046CE775E08EE895E00E9491160F
S11319E080918C0490918D040E9472046CE775E0E0
S11319F08EE895E00E94911680918A0490918B0460
S1131A000E9472046CE775E08EE895E00E949116DE
S1131A1080918804909189040E9472046CE775E0B7
S1131A208EE895E00E949116809186049091870437
S1131A300E9472046CE775E08EE895E00E949116AE
S1131A4080918404909185040E9472046CE775E08F
S1131A508EE895E00E94911680918204909183040F
S1131A600E9472046CE775E08EE895E00E9491167E
S1131A70C5010E9472046CE775E08EE895E00E944F
S1131A809116109295041092940416C0F701E80F71
S1131A90F91F808190E00E9472046CE775E08EE883
S1131AA095E00E949116809194049091950401967A
S1131AB09093950480939404809194049091950458
S1131AC08A159B051CF3C3010E94880468E775E02E
S1131AD08EE895E00E949116C2010E94880468E78E
S1131AE075E08EE895E00E94911689819A810E94A2
S1131AF0880468E775E08EE895E00E9491168B8172
S1131B009C810E94880468E775E08EE895E00E9455
S1131B10911680E090E00E94880468E775E08EE802
S1131B2095E00E9491168DEC90E00E9472046CE79F
S1131B3075E08EE895E00E9491161092910410923F
S1131B409004212C312C00E010E023C0F801E2576E
S1131B50FA4F80810E9448048295807F8D83F8012A
S1131B60E157FA4F80810E944804F101E257FA4F8D
S1131B70BD818B2B80838091900490919104019678
S1131B8090939104809390040E5F1F4F8FEF281A57
S1131B90380AD6011296AA0FBB1FBE83AD830A175B
S1131BA01B07A0F260919004709191048EE895E077
S1131BB00E94A00490938F0480938E0480E8EEE842
S1131BC0F5E0DF011D928A95E9F78FEF90E00E941E
S1131BD072046CE775E08EE895E00E949116C401EA
S1131BE00E9472046CE775E08EE895E00E949116FD
S1131BF081E090E00E9472046CE775E08EE895E065
S1131C000E94911684E090E00E9472046CE775E0F3
S1131C108EE895E00E94911680918C0490918D0439
S1131C200E9472046CE775E08EE895E00E949116BC
S1131C3080918A0490918B040E9472046CE775E091
S1131C408EE895E00E949116809188049091890411
S1131C500E9472046CE775E08EE895E00E9491168C
S1131C6080918604909187040E9472046CE775E069
S1131C708EE895E00E9491168091840490918504E9
S1131C800E9472046CE775E08EE895E00E9491165C
S1131C9080918204909183040E9472046CE775E041
S1131CA08EE895E00E949116C5010E9472046CE7CB
S1131CB075E08EE895E00E949116109295041092BA
S1131CC0940416C0F701E80FF91F808190E00E9488
S1131CD072046CE775E08EE895E00E94911680919D
S1131CE094049091950401969093950480939404A0
S1131CF080919404909195048A159B051CF3C3016B
S1131D000E94880468E775E08EE895E00E949116C9
S1131D10C2010E94880468E775E08EE895E00E949D
S1131D20911689819A810E94880468E775E08EE89B
S1131D3095E00E9491168B819C810E94880468E73B
S1131D4075E08EE895E00E94911680918E04909142
S1131D508F040E94880468E775E08EE895E00E948D
S1131D6091168DEC90E00E9472046CE775E08EE8A9
S1131D7095E00E9491161092910410929004C12C47
S1131D80D12C00E010E024C0F801E257FA4F808122
S1131D900E944804F82EFF0CFF0CFF0CFF0CF80106
S1131DA0E157FA4F80810E944804F601E257FA4F46
S1131DB08F2980838091900490919104019690934F
S1131DC09104809390040E5F1F4FBFEFCB1ADB0A80
S1131DD08D819E8108171907B8F226960FB6F894DC
S1131DE0DEBF0FBECDBFDF91CF911F910F91FF904A
S1131DF0EF90DF90CF90BF90AF909F908F907F90A7
S1131E006F905F904F903F902F900895FC018381D5
S1131E1080937A048230E9F018F4813041F0089517
S1131E20833009F480C0843009F48FC0089581811F
S1131E3090E090937C0480937B04818D90E0982FB4
S1131E408827228D820F911D9093790480937804C2
S1131E500895818190E090937C0480937B04828533
S1131E6090E0982F88272385820F911D90938000FE
S1131E7080937F00848590E0982F88272585820FA2
S1131E80911D90937E0080937D00868590E0982F2D
S1131E9088272785820F911D90937C0080937B0077
S1131EA0808990E0982F88272189820F911D909333
S1131EB07A0080937900828990E0982F882723897B
S1131EC0820F911D9093740080937300848990E035
S1131ED0982F88272589820F911D909372008093F3
S1131EE07100868990E0982F88272789820F911D99
S1131EF09093780080937700808D90E0982F8827C6
S1131F00218D820F911D9093760080937500828DB0
S1131F1090E0982F8827238D820F911D9093790448
S1131F20809378040895818190E090937C04809359
S1131F307B04828990E0982F88272389820F911D42
S1131F4090937904809378040895828190E090932B
S1131F507C0480937B04828590E09093700080934E
S1131F606F00E80FF91F838990E0982F8827248950
S1131F70820F911D90937904809378040895BC0195
S1131F8088E196E00E94A0042091780430917904BD
S1131F908217930711F481E0089580E008950F9368
S1131FA01F93FC0180917D0090917E00E817F90752
S1131FB040F082E090E0D8018D939C9381E090E022
S1131FC002C080E090E0A0917F00B0918000AE1745
S1131FD0BF0760F00196FC01E150F048EE0FFF1FCF
S1131FE0E00FF11FA1E0B0E0B183A083E62FF72F4B
S1131FF06091790070917A00E617F70760F0019616
S1132000DC01A150B048AA0FBB1FA00FB11F64E0B0
S113201070E06D937C9360917B0070917C006E17EF
S11320207F0760F00196FC01E150F048EE0FFF1FBE
S1132030E00FF11F63E070E071836083642F752FFC
S113204040917100509172006417750760F0019619
S1132050FC01E150F048EE0FFF1FE00FF11F46E0D6
S113206050E05183408340917300509174004617AF
S1132070570760F00196FC01E150F048EE0FFF1F96
S1132080E00FF11F45E050E051834083422F532F6E
S113209020917500309176004217530760F0019645
S11320A0FC01E150F048EE0FFF1FE00FF11F28E0A4
S11320B030E0318320832091770030917800241719
S11320C0350768F001969C0121503048220F331FD8
S11320D0F801E20FF31F27E030E0318320831F91E2
S11320E00F9108950E9446050E945F0060E072EC23
S11320F081E090E00E945D1360E074E284EF90E080
S11321000E943A1378940E941B028823E1F383E02F
S11321100E943B0280E00E94E60180E00E94B1013F
S11321200E94D302833031F461E870E081EC90E0E6
S11321300E947002109281041092800481E08093C6
S11321407F049EC041E051E067E071E080E00E94BE
S113215003030E94D30280937306833031F461E851
S113216070E081EC90E00E947002809173068230EE
S113217039F441E051E067E071E080E00E9403033C
S1132180CEE8D5E010E8FE01212F11922A95E9F757
S11321900E94530180E690E00E9449076CE170E0E0
S11321A0CE010E946D03FE0111921A95E9F70E9477
S11321B04D13609362067093630680936406909354
S11321C065060BC08EE895E00E94E8039093A9048D
S11321D08093A80418161906ECF00E944D13009180
S11321E06206109163062091640630916506DC0155
S11321F0CB01801B910BA20BB30B00911D0110911D
S11322001E0120911F013091200180179107A20720
S1132210B307C0F28091A8049091A9041816190676
S113222014F50E94BF0688E196E00E94060F8CE137
S113223090E00E94BF0F80938004882379F081E0AE
S1132240809381040E945301FFEF23ED80E3F1505A
S113225020408040E1F700C0000012C010928104C9
S11322600E9434020DC0109281040E9434029FEF38
S1132270EBE7F2E99150E040F040E1F700C00000E4
S113228080918104882309F45DCFD1F380917E0489
S1132290811176C0CEE8D5E010E8FE01212F11921D
S11322A02A95E9F70E941B090E9453016EE070E031
S11322B0CE010E946D03FE0111921A95E9F70E9466
S11322C04D13609362067093630680936406909343
S11322D065060BC08EE895E00E94E8039093A9047C
S11322E08093A80418161906ECF00E944D1300916F
S11322F06206109163062091640630916506DC0144
S1132300CB01801B910BA20BB30B00911D0110910B
S11323101E0120911F013091200180179107A2070F
S1132320B307C0F28091A8049091A9041816190665
S1132330CCF40E94BF0688E196E00E94060F8DE16E
S113234090E00E94BF0F80938004882331F00E94A4
S1132350530181E080937E045EC1109281040E9447
S1132360340259C1109281040E943402FFEF2BE71A
S113237082E9F15020408040E1F700C000004BC1E9
S113238081E080937F040E9409050E9461050E94F8
S113239041062091C80484E6829F90011124409153
S11323A0C904849FA00111246091B4047091B50400
S11323B004E716E08091BC049091BD040E94CF0F05
S11323C09093700080936F00009711F010927F0437
S11323D020917F04222309F488C0CEE8D5E010E8D8
S11323E0FE01212F11922A95E9F72091C80484E671
S11323F0829F900111244091C904849FA00111245B
S11324006091B4047091B5048091BC049091BD04B2
S11324100E94B80A0E94530165E170E0CE010E9457
S11324206D03FE0111921A95E9F70E944D13609312
S113243062067093630680936406909365060BC0EE
S11324408EE895E00E94E8039093A9048093A80481
S113245018161906ECF00E944D13009162061091B3
S113246063062091640630916506DC01CB01801B74
S1132470910BA20BB30B00911D0110911E01209131
S11324801F013091200180179107A207B307C0F202
S11324908091A8049091A90418161906C4F40E9406
S11324A0BF0688E196E00E94060F85E190E00E9455
S11324B0BF0F80938004882329F00E945301109257
S11324C07E04A9C0109281040E943402A4C0109218
S11324D081040E943402FFEF2BE782E9F15020408F
S11324E08040E1F700C0000096C0CEE8D5E06894D3
S11324F0DD24D7F8FE012D2D11922A95E9F70091DC
S1132500C80494E6909F800111242091C904929FED
S1132510900111244091B4045091B5046091BC041D
S11325207091BD040F2EF4E7EF2EF6E0FF2EF02D90
S11325300E949E0C0E94530160916F007091700084
S11325406A5E7F4FCE010E946D03FE011192DA9400
S1132550E9F70E944D1360936206709363068093BB
S11325606406909365060BC08EE895E00E94E8032C
S11325709093A9048093A80418161906ECF00E94FD
S11325804D13009162061091630620916406309108
S11325906506DC01CB01801B910BA20BB30B0091F0
S11325A01D0110911E0120911F01309120018017FF
S11325B09107A207B307C0F28091A8049091A904DF
S11325C018161906DCF40E94BF0688E196E00E9402
S11325D0060F80916F009091700046960E94BF0F85
S11325E080938004882329F00E94530110927E0472
S11325F012C0109281040E9434020DC01092810412
S11326000E943402FFEF2BE782E9F1502040804022
S1132610E1F700C000009FEFEFE4F3EC9150E040DD
S1132620F040E1F700C000002BCE1F920F920FB6CE
S11326300F9211248F939F93AF93BF9380916B0557
S113264090916C05A0916D05B0916E050196A11D48
S1132650B11D80936B0590936C05A0936D05B093A9
S11326606E05BF91AF919F918F910F900FBE0F9008
S11326701F90189520E43FE140E050E00E941616B8
S11326808EB58A608EBDBB27A52F942F832F8BBD5B
S11326902ABD89B7806189BF0895F89421E009C0F3
S11326A060916B0570916C0580916D0590916E053C
S11326B020E02111F5CF789408952BB122602BB935
S11326C02AB128692AB920B5266820BD0E94CE14F3
S11326D020E030E040E051E40E945C159B01AC0135
S11326E060E074E284E79BE40E94261420E030E07A
S11326F040E85FE30E94B9130E94C9150E94981430
S113270069B970BD08958CB95D9BFECF08950F9390
S11327101F93CF93DF938C01C0E0D0E003C00E94ED
S113272083132196F801EC0FFD1F80818111F7CFEF
S1132730DF91CF911F910F910895EF92FF920F9324
S11327401F93CF93DF937C018B01C0E0D0E007C0DF
S1132750F701EC0FFD1F80810E9483132196C0179F
S1132760D107B0F3DF91CF911F910F91FF90EF90BC
S113277008955058BB27AA270E94D1130C94221500
S11327800E94141538F00E941B1520F039F49F3F65
S113279019F426F40C9411150EF4E095E7FB0C944F
S11327A00B15E92F0E94331558F3BA176207730704
S11327B08407950720F079F4A6F50C9455150EF4CA
S11327C0E0950B2EBA2FA02D0B01B90190010C013D
S11327D0CA01A0011124FF27591B99F0593F50F455
S11327E0503E68F11A16F040A22F232F342F4427AD
S11327F0585FF3CF469537952795A795F0405395A5
S1132800C9F77EF41F16BA0B620B730B840BBAF074
S11328109150A1F0FF0FBB1F661F771F881FC2F7DF
S11328200EC0BA0F621F731F841F48F487957795F3
S11328306795B795F7959E3F08F0B0CF9395880FAD
S113284008F09927EE0F9795879508950E943A14FA
S11328500C9422150E941B1558F00E94141540F088
S113286029F45F3F29F00C940B1551110C94561563
S11328700C9411150E94331568F39923B1F3552371
S113288091F3951B550BBB27AA276217730784077F
S113289038F09F5F5F4F220F331F441FAA1FA9F315
S11328A035D00E2E3AF0E0E832D091505040E69503
S11328B0001CCAF72BD0FE2F29D0660F771F881F64
S11328C0BB1F261737074807AB07B0E809F0BB0B57
S11328D0802DBF01FF2793585F4F3AF09E3F51056B
S11328E078F00C940B150C9456155F3FE4F3983E66
S11328F0D4F3869577956795B795F7959F5FC9F754
S1132900880F911D9695879597F90895E1E0660FD4
S1132910771F881FBB1F621773078407BA0720F04D
S1132920621B730B840BBA0BEE1F88F7E0950895B6
S11329300E949F146894B1110C94561508950E9436
S11329403B1588F09F5798F0B92F9927B751B0F0ED
S1132950E1F0660F771F881F991F1AF0BA95C9F71F
S113296014C0B13091F00E945515B1E008950C9453
S11329705515672F782F8827B85F39F0B93FCCF306
S1132980869577956795B395D9F73EF4909580959C
S1132990709561957F4F8F4F9F4F0895E89409C0BC
S11329A097FB3EF490958095709561957F4F8F4F7E
S11329B09F4F9923A9F0F92F96E9BB279395F69594
S11329C0879577956795B795F111F8CFFAF4BB0F12
S11329D011F460FF1BC06F5F7F4F8F4F9F4F16C076
S11329E0882311F096E911C0772321F09EE8872F00
S11329F0762F05C0662371F096E8862F70E060E0BC
S1132A002AF09A95660F771F881FDAF7880F969534
S1132A10879597F9089597F99F6780E870E060E0DB
S1132A2008959FEF80EC089500240A941616170663
S1132A3018060906089500240A94121613061406AB
S1132A4005060895092E0394000C11F4882352F00E
S1132A50BB0F40F4BF2B11F460FF04C06F5F7F4FC6
S1132A608F4F9F4F089557FD9058440F551F59F0AD
S1132A705F3F71F04795880F97FB991F61F09F3F67
S1132A8079F087950895121613061406551FF2CF90
S1132A904695F1DF08C0161617061806991FF1CFE0
S1132AA086957105610508940895E894BB27662707
S1132AB07727CB0197F908950E946F150C9422157E
S1132AC00E94141538F00E941B1520F0952311F074
S1132AD00C940B150C94111511240C9456150E948A
S1132AE0331570F3959FC1F3950F50E0551F629F06
S1132AF0F001729FBB27F00DB11D639FAA27F00D53
S1132B00B11DAA1F649F6627B00DA11D661F829F79
S1132B102227B00DA11D621F739FB00DA11D621F5E
S1132B20839FA00D611D221F749F3327A00D611D7B
S1132B30231F849F600D211D822F762F6A2F11245D
S1132B409F5750409AF0F1F088234AF0EE0FFF1F90
S1132B50BB1F661F771F881F91505040A9F79E3FE7
S1132B60510580F00C940B150C9456155F3FE4F35B
S1132B70983ED4F3869577956795B795F795E7953D
S1132B809F5FC1F7FE2B880F911D9695879597F946
S1132B9008950E943B15E8F09E37E8F09639B8F4A2
S1132BA09E3848F4672F782F8827985FF9CF869549
S1132BB07795679593959539D0F3B62FB1706B0FD0
S1132BC0711D811D20F487957795679593950C94D5
S1132BD0ED150C9408160C945615882371F477237C
S1132BE021F09850872B762F07C0662311F499277C
S1132BF00DC09051862B70E060E02AF09A95660F24
S1132C00771F881FDAF7880F9695879597F90895A7
S1132C109F3F31F0915020F4879577956795B7954C
S1132C20880F911D9695879597F90895A1E21A2E1C
S1132C30AA1BBB1BFD010DC0AA1FBB1FEE1FFF1F5C
S1132C40A217B307E407F50720F0A21BB30BE40BAC
S1132C50F50B661F771F881F991F1A9469F76095F3
S1132C607095809590959B01AC01BD01CF010895AD
S1132C70EE0FFF1F0590F491E02D09940E94491670
S1132C80A59F900DB49F900DA49F800D911D1124BC
S1132C900895A29FB001B39FC001A39F700D811D31
S1132CA01124911DB29F700D811D1124911D089551
S1132CB0FC0188279927E89421912032E9F32930EF
S1132CC010F02E30C8F32B3241F02D3239F46894D1
S1132CD004C00E94C416820F911D219120532A30F2
S1132CE0C0F31EF4909581959F4F0895FB01DC017C
S1132CF002C001900D9241505040D8F708956817D2
S1132D00790768F4FB01DC01E40FF51FA40FB51F7C
S1132D1002C002900E9241505040D8F708950C948E
S1132D207616FB01DC010D900020E9F71197019064
S1132D300D920020E1F70895FB01DC014150504061
S1132D4030F08D910190801919F40020B9F7881B97
S1132D50990B0895FB0151915523A9F0BF01DC01A2
S1132D604D9145174111E1F759F4CD01019000202F
S1132D7049F04D9140154111C9F3FB014111EFCFC9
S1132D8081E090E0019708957AE0979F902D879FC6
S1132D90802D910D11240895AEE0B0E0E2EDF6E14E
S1132DA00C948D190D891E8986E08C831A830983FE
S1132DB08FEF9FE79E838D83AE01475E5F4F6F89E0
S1132DC0788DCE0101960E94EE16EF81F885E00F12
S1132DD0F11F10822E96E4E00C94A919ABE0B0E048
S1132DE0E4EFF6E10C947F196C017B018A01FC018C
S1132DF017821682838181FFCCC1CE0101963C01EA
S1132E00F6019381F70193FD859193FF81917F01F1
S1132E10882309F4BAC1853239F493FD859193FF6F
S1132E2081917F01853229F4B60190E00E94E51872
S1132E30E7CF912C212C312CFFE1F315D8F08B3204
S1132E4079F038F4803279F08332A1F4232D2061B3
S1132E501DC08D3261F0803369F4232D216016C0CA
S1132E60832D8260382EE32DE4603E2E2AC0F32D9C
S1132E70F8601DC037FC2DC020ED280F2A3040F02B
S1132E808E32B9F436FC81C1232D2064322E19C050
S1132E9036FE06C08AE0989E200D1124922E11C0A1
S1132EA0EAE02E9E200D1124222EF32DF0623F2EF7
S1132EB008C08C3621F4832D8068382E02C08836F1
S1132EC041F4F70193FD859193FF81917F01811175
S1132ED0B3CF982F9F7D9554933028F40C5F1F4FE8
S1132EE09FE399830DC0833631F0833771F08335C6
S1132EF009F059C021C0F801808189830E5F1F4FFA
S1132F0088248394912C530113C02801F2E04F0EBE
S1132F10511CF801A080B18036FE03C0692D70E019
S1132F2002C06FEF7FEFC5010E94DA184C018201E5
S1132F30F32DFF773F2E16C0280122E0420E511CCC
S1132F40F801A080B18036FE03C0692D70E002C094
S1132F506FEF7FEFC5010E94CF184C01F32DF0688D
S1132F603F2E820133FC1BC0822D90E08816990607
S1132F70B0F4B60180E290E00E94E5182A94F4CF00
S1132F80F50137FC859137FE81915F01B60190E030
S1132F900E94E51821102A9421E0821A91088114D4
S1132FA0910471F7E8C0843611F0893641F5F801CF
S1132FB037FE07C060817181828193810C5F1F4F4E
S1132FC008C060817181072E000C880B990B0E5F7D
S1132FD01F4FF32DFF763F2E97FF09C090958095E4
S1132FE0709561957F4F8F4F9F4FF0683F2E2AE079
S1132FF030E0A3010E942119882E861845C0853728
S113300031F4232D2F7EB22E2AE030E025C0932DFB
S1133010997FB92E8F36C1F018F4883579F0B5C090
S1133020803719F0883721F0B0C0E92FE061BE2E57
S1133030B4FE0DC0FB2DF460BF2E09C034FE0AC0DF
S1133040292F2660B22E06C028E030E005C020E11A
S113305030E002C020E132E0F801B7FE07C0608131
S11330607181828193810C5F1F4F06C060817181E1
S113307080E090E00E5F1F4FA3010E942119882E6B
S11330808618FB2DFF773F2E36FE0DC0232D2E7F95
S1133090A22E891458F434FE0BC032FC09C0832DCF
S11330A08E7EA82E05C0B82CA32C03C0B82C01C05A
S11330B0B92CA4FE0FC0FE01E80DF11D8081803300
S11330C021F49A2D997EA92E09C0A2FE06C0B394BC
S11330D0B39404C08A2D867809F0B394A3FC11C07C
S11330E0A0FE06C0B21488F4280C922C9B180EC0C3
S11330F0B21460F4B60180E290E00E94E518B39443
S1133100F7CFB21418F42B1802C0982C212CA4FE6B
S113311010C0B60180E390E00E94E518A2FE17C03B
S1133120A1FC03C088E790E002C088E590E0B60106
S11331300CC08A2D867859F0A1FE02C08BE201C032
S113314080E2A7FC8DE2B60190E00E94E5188914A4
S113315038F4B60180E390E00E94E5189A94F7CF22
S11331608A94F301E80DF11D8081B60190E00E947C
S1133170E5188110F5CF222009F442CEB60180E291
S113318090E00E94E5182A94F6CFF6018681978193
S113319002C08FEF9FEF2B96E2E10C949B19FC0188
S11331A00590615070400110D8F7809590958E0F6E
S11331B09F1F0895FC016150704001900110D8F7E1
S11331C0809590958E0F9F1F08950F931F93CF9313
S11331D0DF93FB01238121FD03C08FEF9FEF2CC000
S11331E022FF16C046815781248135814217530737
S11331F044F4A081B1819D012F5F3F4F318320832F
S11332008C93268137812F5F3F4F3783268314C0E9
S11332108B01EC01FB010084F185E02D0995892BDC
S1133220E1F6D80116968D919C9117970196179601
S11332309C938E931697CE01DF91CF911F910F919E
S11332400895FA01AA27283051F1203181F1E89438
S11332506F936E7F6E5F7F4F8F4F9F4FAF4FB1E085
S11332603ED0B4E03CD0670F781F891F9A1FA11D80
S1133270680F791F8A1F911DA11D6A0F711D811D81
S1133280911DA11D20D009F468943F912AE0269F46
S113329011243019305D3193DEF6CF010895462FA5
S11332A04770405D4193B3E00FD0C9F7F6CF462F86
S11332B04F70405D4A3318F0495D31FD40524193EF
S11332C002D0A9F7EACFB4E0A695979587957795AC
S11332D06795BA95C9F700976105710508959B0133
S11332E0AC010A2E06945795479537952795BA95BC
S11332F0C9F7620F731F841F951FA01D08952F9295
S11333003F924F925F926F927F928F929F92AF9271
S1133310BF92CF92DF92EF92FF920F931F93CF93BE
S1133320DF93CDB7DEB7CA1BDB0B0FB6F894DEBF55
S11333300FBECDBF09942A88398848885F846E847B
S11333407D848C849B84AA84B984C884DF80EE80C5
S1133350FD800C811B81AA81B981CE0FD11D0FB6CE
S1133360F894DEBF0FBECDBFED010895F894FFCFF2
S1133370313233343536373839313233343536FF38
S1133380FFFFFFFFFFFFFFFFFFFFFFFFFFFFFFFF49
S1133390FF31323334353637380000000000000086
S11333A00000000000000000000000000000000019
S11333B00000000000000000000000000000000009
S11333C000000000000000000000000000000000F9
S11333D00061626F206164616D0000000000000004
S11333E000000000000000000000000000000000D9
S11333F000000000000000000000000000000000C9
S113340000000000000000000000000000000000B8
S1133410003237303135003139322E3136382E34DE
S1133420332E3300000000000000000000102700CD
S1133430000000A0400060EA450060EA460D0A4F23
S11334404B0D0A0041542B4349504D4F44453D25F3
S1133450640041542B4349504D55583D2564004167
S11334605445300041540041542B434950434C4F80
S113347053453D310041542B43574D4F44453D2561
S1133480640041542B43574A41503D222573222C5A
S113349022257322000D0A5749464920434F4E4EB8
S11334A045435445440D0A002B43574A41503A3191
S11334B0002B43574A41503A32002B43574A41505C
S11334C03A33002B43574A41503A340041542B437A
S11334D04950535441545553005354415455533A4D
S11334E032005354415455533A33005354415455C4
S11334F0533A34005354415455533A3500434950D8
S11335004D55583A300041542B4349504D55583F7E
S11335100041542B43495053544152543D22544387
S113352050222C222573222C25730041542B43490D
S11335305053544152543D222564222C225443506A
S1133540222C222573222C257300434F4E4E4543D3
S1133550540D0A0041542B43495053454E443D25D4
S113356064000D0A4F4B0D0A3E000D0A53454E44AC
S1133570204F4B0D0A0025303258002530345800B6
S11335800000891112239B322446AD573665BF745F
S1133590488CC19D5AAFD3BE6CCAE5DB7EE9F7F80F
S11335A08110080193331A22A5562C47B7753E643F
S11335B0C99C408DDBBF52AEEDDA64CBFFF976E8EF
S11335C002218B30100299132667AF763444BD551F
S11335D04AADC3BC588ED19F6EEBE7FA7CC8F5D9CF
S11335E083310A2091121803A7772E66B5543C45FF
S11335F0CBBD42ACD99E508FEFFB66EAFDD874C9AF
S113360004428D5316619F702004A9153227BB36DE
S11336104CCEC5DF5EEDD7FC6888E1997AABF3BA8E
S113362085520C4397711E60A1142805B3373A26BE
S1133630CDDE44CFDFFD56ECE9986089FBBB72AA6E
S113364006638F7214409D512225AB343006B9179E
S11336504EEFC7FE5CCCD5DD6AA9E3B8788AF19B4E
S113366087730E6295501C41A3352A24B11638077E
S1133670CFFF46EEDDDC54CDEBB962A8F99A708B2E
S1133680088481951AA793B62CC2A5D33EE1B7F05E
S11336904008C919522BDB3A644EED5F766DFF7C0E
S11336A0899400859BB712A6ADD224C3BFF136E03E
S11336B0C1184809D33B5A2AE55E6C4FF77D7E6CEE
S11336C00AA583B4188691972EE3A7F23CC0B5D11E
S11336D04229CB38500AD91B666FEF7E744CFD5DCE
S11336E08BB502A499961087AFF326E2BDD034C1FE
S11336F0C3394A28D11A580BE77F6E6EF55C7C4DAE
S11337000CC685D71EE597F42880A1913AA3B3B2DD
S1133710444ACD5B5669DF78600CE91D722FFB3E8D
S11337208DD604C79FF516E4A9902081BBB332A2BD
S1133730C55A4C4BD7795E68E11C680DF33F7A2E6D
S11337400EE787F61CC495D52AA1A3B03882B1939D
S1133750466BCF7A5448DD59622DEB3C700EF91F4D
S11337608FF706E69DD414C5ABB122A0B99230837D
S1133770C77B4E6AD5585C49E33D6A2CF11E780F2D
S9030000FC
